{
  "contractName": "TradingBot",
  "abi": [
    {
      "inputs": [],
      "payable": true,
      "stateMutability": "payable",
      "type": "constructor"
    },
    {
      "payable": true,
      "stateMutability": "payable",
      "type": "fallback"
    },
    {
      "constant": true,
      "inputs": [],
      "name": "DAI",
      "outputs": [
        {
          "internalType": "address",
          "name": "",
          "type": "address"
        }
      ],
      "payable": false,
      "stateMutability": "view",
      "type": "function"
    },
    {
      "constant": true,
      "inputs": [],
      "name": "SAI",
      "outputs": [
        {
          "internalType": "address",
          "name": "",
          "type": "address"
        }
      ],
      "payable": false,
      "stateMutability": "view",
      "type": "function"
    },
    {
      "constant": true,
      "inputs": [],
      "name": "USDC",
      "outputs": [
        {
          "internalType": "address",
          "name": "",
          "type": "address"
        }
      ],
      "payable": false,
      "stateMutability": "view",
      "type": "function"
    },
    {
      "constant": true,
      "inputs": [],
      "name": "WETH",
      "outputs": [
        {
          "internalType": "address",
          "name": "",
          "type": "address"
        }
      ],
      "payable": false,
      "stateMutability": "view",
      "type": "function"
    },
    {
      "constant": true,
      "inputs": [
        {
          "internalType": "address",
          "name": "",
          "type": "address"
        }
      ],
      "name": "currencies",
      "outputs": [
        {
          "internalType": "uint256",
          "name": "",
          "type": "uint256"
        }
      ],
      "payable": false,
      "stateMutability": "view",
      "type": "function"
    },
    {
      "constant": true,
      "inputs": [],
      "name": "loan",
      "outputs": [
        {
          "internalType": "uint256",
          "name": "",
          "type": "uint256"
        }
      ],
      "payable": false,
      "stateMutability": "view",
      "type": "function"
    },
    {
      "constant": true,
      "inputs": [
        {
          "internalType": "address",
          "name": "token",
          "type": "address"
        }
      ],
      "name": "tokenToMarketId",
      "outputs": [
        {
          "internalType": "uint256",
          "name": "",
          "type": "uint256"
        }
      ],
      "payable": false,
      "stateMutability": "view",
      "type": "function"
    },
    {
      "constant": false,
      "inputs": [
        {
          "internalType": "address",
          "name": "flashToken",
          "type": "address"
        },
        {
          "internalType": "uint256",
          "name": "flashAmount",
          "type": "uint256"
        },
        {
          "internalType": "address",
          "name": "arbToken",
          "type": "address"
        },
        {
          "internalType": "bytes",
          "name": "zrxData",
          "type": "bytes"
        },
        {
          "internalType": "uint256",
          "name": "oneSplitMinReturn",
          "type": "uint256"
        },
        {
          "internalType": "uint256[]",
          "name": "oneSplitDistribution",
          "type": "uint256[]"
        }
      ],
      "name": "getFlashloan",
      "outputs": [],
      "payable": true,
      "stateMutability": "payable",
      "type": "function"
    },
    {
      "constant": false,
      "inputs": [
        {
          "internalType": "address",
          "name": "",
          "type": "address"
        },
        {
          "components": [
            {
              "internalType": "address",
              "name": "owner",
              "type": "address"
            },
            {
              "internalType": "uint256",
              "name": "number",
              "type": "uint256"
            }
          ],
          "internalType": "struct Structs.Info",
          "name": "",
          "type": "tuple"
        },
        {
          "internalType": "bytes",
          "name": "data",
          "type": "bytes"
        }
      ],
      "name": "callFunction",
      "outputs": [],
      "payable": false,
      "stateMutability": "nonpayable",
      "type": "function"
    },
    {
      "constant": false,
      "inputs": [
        {
          "internalType": "address",
          "name": "_fromToken",
          "type": "address"
        },
        {
          "internalType": "address",
          "name": "_toToken",
          "type": "address"
        },
        {
          "internalType": "uint256",
          "name": "_fromAmount",
          "type": "uint256"
        },
        {
          "internalType": "bytes",
          "name": "_0xData",
          "type": "bytes"
        },
        {
          "internalType": "uint256",
          "name": "_1SplitMinReturn",
          "type": "uint256"
        },
        {
          "internalType": "uint256[]",
          "name": "_1SplitDistribution",
          "type": "uint256[]"
        }
      ],
      "name": "arb",
      "outputs": [],
      "payable": true,
      "stateMutability": "payable",
      "type": "function"
    },
    {
      "constant": false,
      "inputs": [
        {
          "internalType": "address",
          "name": "_fromToken",
          "type": "address"
        },
        {
          "internalType": "address",
          "name": "_toToken",
          "type": "address"
        },
        {
          "internalType": "uint256",
          "name": "_fromAmount",
          "type": "uint256"
        },
        {
          "internalType": "bytes",
          "name": "_0xData",
          "type": "bytes"
        },
        {
          "internalType": "uint256",
          "name": "_1SplitMinReturn",
          "type": "uint256"
        },
        {
          "internalType": "uint256[]",
          "name": "_1SplitDistribution",
          "type": "uint256[]"
        }
      ],
      "name": "trade",
      "outputs": [],
      "payable": true,
      "stateMutability": "payable",
      "type": "function"
    },
    {
      "constant": false,
      "inputs": [
        {
          "internalType": "address",
          "name": "_from",
          "type": "address"
        },
        {
          "internalType": "uint256",
          "name": "_amount",
          "type": "uint256"
        },
        {
          "internalType": "bytes",
          "name": "_calldataHexString",
          "type": "bytes"
        }
      ],
      "name": "zrxSwap",
      "outputs": [],
      "payable": true,
      "stateMutability": "payable",
      "type": "function"
    },
    {
      "constant": false,
      "inputs": [
        {
          "internalType": "address",
          "name": "_from",
          "type": "address"
        },
        {
          "internalType": "address",
          "name": "_to",
          "type": "address"
        },
        {
          "internalType": "uint256",
          "name": "_amount",
          "type": "uint256"
        },
        {
          "internalType": "uint256",
          "name": "_minReturn",
          "type": "uint256"
        },
        {
          "internalType": "uint256[]",
          "name": "_distribution",
          "type": "uint256[]"
        }
      ],
      "name": "oneSplitSwap",
      "outputs": [],
      "payable": true,
      "stateMutability": "payable",
      "type": "function"
    },
    {
      "constant": false,
      "inputs": [],
      "name": "getWeth",
      "outputs": [],
      "payable": true,
      "stateMutability": "payable",
      "type": "function"
    },
    {
      "constant": false,
      "inputs": [
        {
          "internalType": "uint256",
          "name": "_amount",
          "type": "uint256"
        }
      ],
      "name": "approveWeth",
      "outputs": [],
      "payable": false,
      "stateMutability": "nonpayable",
      "type": "function"
    },
    {
      "constant": false,
      "inputs": [
        {
          "internalType": "address",
          "name": "_tokenAddress",
          "type": "address"
        }
      ],
      "name": "withdrawToken",
      "outputs": [],
      "payable": false,
      "stateMutability": "nonpayable",
      "type": "function"
    },
    {
      "constant": false,
      "inputs": [],
      "name": "withdrawEther",
      "outputs": [],
      "payable": false,
      "stateMutability": "nonpayable",
      "type": "function"
    }
  ],
  "bytecode": "0x6080604052731e0447b19bb6ecfdae1e4ae1694b0c3659614e4e6000806101000a81548173ffffffffffffffffffffffffffffffffffffffff021916908373ffffffffffffffffffffffffffffffffffffffff16021790555073c02aaa39b223fe8d0a0e5c4f27ead9083c756cc2600160006101000a81548173ffffffffffffffffffffffffffffffffffffffff021916908373ffffffffffffffffffffffffffffffffffffffff1602179055507389d24a6b4ccb1b6faa2625fe562bdd9a23260359600260006101000a81548173ffffffffffffffffffffffffffffffffffffffff021916908373ffffffffffffffffffffffffffffffffffffffff16021790555073a0b86991c6218b36c1d19d4a2e9eb0ce3606eb48600360006101000a81548173ffffffffffffffffffffffffffffffffffffffff021916908373ffffffffffffffffffffffffffffffffffffffff160217905550736b175474e89094c44da98b954eedeac495271d0f600460006101000a81548173ffffffffffffffffffffffffffffffffffffffff021916908373ffffffffffffffffffffffffffffffffffffffff16021790555073c586bef4a0992c495cf22e1aeee4e446cecdee0e600860006101000a81548173ffffffffffffffffffffffffffffffffffffffff021916908373ffffffffffffffffffffffffffffffffffffffff160217905550600a6009556000600a557361935cbdd02287b511119ddb11aeb42f1593b7ef600b60006101000a81548173ffffffffffffffffffffffffffffffffffffffff021916908373ffffffffffffffffffffffffffffffffffffffff1602179055507395e6f48254609a6ee006f7d493c8e5fb97094cef600c60006101000a81548173ffffffffffffffffffffffffffffffffffffffff021916908373ffffffffffffffffffffffffffffffffffffffff16021790555073a26e80e7dea86279c6d778d702cc413e6cffa777600d60006101000a81548173ffffffffffffffffffffffffffffffffffffffff021916908373ffffffffffffffffffffffffffffffffffffffff160217905550600160056000600160009054906101000a900473ffffffffffffffffffffffffffffffffffffffff1673ffffffffffffffffffffffffffffffffffffffff1673ffffffffffffffffffffffffffffffffffffffff16815260200190815260200160002081905550600260056000600260009054906101000a900473ffffffffffffffffffffffffffffffffffffffff1673ffffffffffffffffffffffffffffffffffffffff1673ffffffffffffffffffffffffffffffffffffffff16815260200190815260200160002081905550600360056000600360009054906101000a900473ffffffffffffffffffffffffffffffffffffffff1673ffffffffffffffffffffffffffffffffffffffff1673ffffffffffffffffffffffffffffffffffffffff16815260200190815260200160002081905550600460056000600460009054906101000a900473ffffffffffffffffffffffffffffffffffffffff1673ffffffffffffffffffffffffffffffffffffffff1673ffffffffffffffffffffffffffffffffffffffff16815260200190815260200160002081905550620004c03462000521640100000000026401000000009004565b620004da34620005fa640100000000026401000000009004565b33600760006101000a81548173ffffffffffffffffffffffffffffffffffffffff021916908373ffffffffffffffffffffffffffffffffffffffff1602179055506200089a565b6000600160009054906101000a900473ffffffffffffffffffffffffffffffffffffffff1673ffffffffffffffffffffffffffffffffffffffff16826040516200056b90620007b4565b60006040518083038185875af1925050503d8060008114620005aa576040519150601f19603f3d011682016040523d82523d6000602084013e620005af565b606091505b5050905080620005f6576040517f08c379a0000000000000000000000000000000000000000000000000000000008152600401620005ed90620007f8565b60405180910390fd5b5050565b600160009054906101000a900473ffffffffffffffffffffffffffffffffffffffff1673ffffffffffffffffffffffffffffffffffffffff1663095ea7b3600d60009054906101000a900473ffffffffffffffffffffffffffffffffffffffff16836040518363ffffffff167c010000000000000000000000000000000000000000000000000000000002815260040162000697929190620007cb565b602060405180830381600087803b158015620006b257600080fd5b505af1158015620006c7573d6000803e3d6000fd5b505050506040513d601f19601f82011682018060405250620006ed919081019062000708565b5050565b600081519050620007028162000880565b92915050565b6000602082840312156200071b57600080fd5b60006200072b84828501620006f1565b91505092915050565b6200073f8162000836565b82525050565b60006200075460128362000825565b91507f6661696c656420746f20676574207765746800000000000000000000000000006000830152602082019050919050565b6000620007966000836200081a565b9150600082019050919050565b620007ae8162000876565b82525050565b6000620007c18262000787565b9150819050919050565b6000604082019050620007e2600083018562000734565b620007f16020830184620007a3565b9392505050565b60006020820190508181036000830152620008138162000745565b9050919050565b600081905092915050565b600082825260208201905092915050565b6000620008438262000856565b9050919050565b60008115159050919050565b600073ffffffffffffffffffffffffffffffffffffffff82169050919050565b6000819050919050565b6200088b816200084a565b81146200089757600080fd5b50565b6132ff80620008aa6000396000f3fe60806040526004361061011b576000357c0100000000000000000000000000000000000000000000000000000000900480638b418713116100b2578063d285b7b411610081578063d285b7b4146102df578063d702c0d81461030a578063df1e664614610326578063df99a2b21461034f578063e0bab4c41461036b5761011b565b80638b41871314610232578063ad5c46481461025b578063b826878814610286578063c8c61a79146102c35761011b565b80637362377b116100ee5780637362377b146101ab5780637e68f511146101c257806389476069146101de57806389a30271146102075761011b565b8063107c279f1461011d57806312b246dd146101275780634b3fb7f8146101435780636036cba31461016e575b005b610125610396565b005b610141600480360361013c919081019061233f565b610431565b005b34801561014f57600080fd5b506101586104d5565b6040516101659190612c31565b60405180910390f35b34801561017a57600080fd5b506101956004803603610190919081019061218f565b6104fb565b6040516101a29190612ec2565b60405180910390f35b3480156101b757600080fd5b506101c0610513565b005b6101dc60048036036101d79190810190612286565b610631565b005b3480156101ea57600080fd5b506102056004803603610200919081019061218f565b6106d7565b005b34801561021357600080fd5b5061021c6108e0565b6040516102299190612c31565b60405180910390f35b34801561023e57600080fd5b50610259600480360361025491908101906123ce565b610906565b005b34801561026757600080fd5b50610270610ace565b60405161027d9190612c31565b60405180910390f35b34801561029257600080fd5b506102ad60048036036102a8919081019061218f565b610af4565b6040516102ba9190612ec2565b60405180910390f35b6102dd60048036036102d891908101906124fd565b610b89565b005b3480156102eb57600080fd5b506102f4610c29565b6040516103019190612ec2565b60405180910390f35b610324600480360361031f919081019061243a565b610c2f565b005b34801561033257600080fd5b5061034d6004803603610348919081019061258d565b610db3565b005b61036960048036036103649190810190612286565b610e4f565b005b34801561037757600080fd5b50610380610ef5565b60405161038d9190612c31565b60405180910390f35b600760009054906101000a900473ffffffffffffffffffffffffffffffffffffffff1673ffffffffffffffffffffffffffffffffffffffff163373ffffffffffffffffffffffffffffffffffffffff1614610426576040517f08c379a000000000000000000000000000000000000000000000000000000000815260040161041d90612e02565b60405180910390fd5b61042f34610f1b565b565b600760009054906101000a900473ffffffffffffffffffffffffffffffffffffffff1673ffffffffffffffffffffffffffffffffffffffff163373ffffffffffffffffffffffffffffffffffffffff16146104c1576040517f08c379a00000000000000000000000000000000000000000000000000000000081526004016104b890612e02565b60405180910390fd5b6104ce8585858585610fed565b5050505050565b600260009054906101000a900473ffffffffffffffffffffffffffffffffffffffff1681565b60056020528060005260406000206000915090505481565b600760009054906101000a900473ffffffffffffffffffffffffffffffffffffffff1673ffffffffffffffffffffffffffffffffffffffff163373ffffffffffffffffffffffffffffffffffffffff16146105a3576040517f08c379a000000000000000000000000000000000000000000000000000000000815260040161059a90612e02565b60405180910390fd5b600030905060008173ffffffffffffffffffffffffffffffffffffffff16319050600760009054906101000a900473ffffffffffffffffffffffffffffffffffffffff1673ffffffffffffffffffffffffffffffffffffffff166108fc829081150290604051600060405180830381858888f1935050505015801561062c573d6000803e3d6000fd5b505050565b600760009054906101000a900473ffffffffffffffffffffffffffffffffffffffff1673ffffffffffffffffffffffffffffffffffffffff163373ffffffffffffffffffffffffffffffffffffffff16146106c1576040517f08c379a00000000000000000000000000000000000000000000000000000000081526004016106b890612e02565b60405180910390fd5b6106cf868686868686611254565b505050505050565b600760009054906101000a900473ffffffffffffffffffffffffffffffffffffffff1673ffffffffffffffffffffffffffffffffffffffff163373ffffffffffffffffffffffffffffffffffffffff1614610767576040517f08c379a000000000000000000000000000000000000000000000000000000000815260040161075e90612e02565b60405180910390fd5b60008173ffffffffffffffffffffffffffffffffffffffff166370a08231306040518263ffffffff167c01000000000000000000000000000000000000000000000000000000000281526004016107be9190612c4c565b60206040518083038186803b1580156107d657600080fd5b505afa1580156107ea573d6000803e3d6000fd5b505050506040513d601f19601f8201168201806040525061080e91908101906125b6565b90508173ffffffffffffffffffffffffffffffffffffffff1663a9059cbb600760009054906101000a900473ffffffffffffffffffffffffffffffffffffffff16836040518363ffffffff167c0100000000000000000000000000000000000000000000000000000000028152600401610889929190612c67565b602060405180830381600087803b1580156108a357600080fd5b505af11580156108b7573d6000803e3d6000fd5b505050506040513d601f19601f820116820180604052506108db9190810190612564565b505050565b600360009054906101000a900473ffffffffffffffffffffffffffffffffffffffff1681565b6000809054906101000a900473ffffffffffffffffffffffffffffffffffffffff1673ffffffffffffffffffffffffffffffffffffffff163373ffffffffffffffffffffffffffffffffffffffff1614610995576040517f08c379a000000000000000000000000000000000000000000000000000000000815260040161098c90612e62565b60405180910390fd5b60008060008060606000606088886109b091908101906121b8565b965096509650965096509650965060008773ffffffffffffffffffffffffffffffffffffffff166370a08231306040518263ffffffff167c0100000000000000000000000000000000000000000000000000000000028152600401610a159190612c4c565b60206040518083038186803b158015610a2d57600080fd5b505afa158015610a41573d6000803e3d6000fd5b505050506040513d601f19601f82011682018060405250610a6591908101906125b6565b90508686820314610aab576040517f08c379a0000000000000000000000000000000000000000000000000000000008152600401610aa290612e82565b60405180910390fd5b80600681905550610ac08886898787876113d0565b505050505050505050505050565b600160009054906101000a900473ffffffffffffffffffffffffffffffffffffffff1681565b600080600560008473ffffffffffffffffffffffffffffffffffffffff1673ffffffffffffffffffffffffffffffffffffffff1681526020019081526020016000205490506000811415610b7d576040517f08c379a0000000000000000000000000000000000000000000000000000000008152600401610b7490612ea2565b60405180910390fd5b60018103915050919050565b600760009054906101000a900473ffffffffffffffffffffffffffffffffffffffff1673ffffffffffffffffffffffffffffffffffffffff163373ffffffffffffffffffffffffffffffffffffffff1614610c19576040517f08c379a0000000000000000000000000000000000000000000000000000000008152600401610c1090612e02565b60405180910390fd5b610c2483838361157c565b505050565b60065481565b600760009054906101000a900473ffffffffffffffffffffffffffffffffffffffff1673ffffffffffffffffffffffffffffffffffffffff163373ffffffffffffffffffffffffffffffffffffffff1614610cbf576040517f08c379a0000000000000000000000000000000000000000000000000000000008152600401610cb690612e02565b60405180910390fd5b60008873ffffffffffffffffffffffffffffffffffffffff166370a08231306040518263ffffffff167c0100000000000000000000000000000000000000000000000000000000028152600401610d169190612c4c565b60206040518083038186803b158015610d2e57600080fd5b505afa158015610d42573d6000803e3d6000fd5b505050506040513d601f19601f82011682018060405250610d6691908101906125b6565b905060608989838a8a8a8a8a8a604051602001610d8b99989796959493929190612ce2565b6040516020818303038152906040529050610da78a8a836117ad565b50505050505050505050565b600760009054906101000a900473ffffffffffffffffffffffffffffffffffffffff1673ffffffffffffffffffffffffffffffffffffffff163373ffffffffffffffffffffffffffffffffffffffff1614610e43576040517f08c379a0000000000000000000000000000000000000000000000000000000008152600401610e3a90612e02565b60405180910390fd5b610e4c81611c54565b50565b600760009054906101000a900473ffffffffffffffffffffffffffffffffffffffff1673ffffffffffffffffffffffffffffffffffffffff163373ffffffffffffffffffffffffffffffffffffffff1614610edf576040517f08c379a0000000000000000000000000000000000000000000000000000000008152600401610ed690612e02565b60405180910390fd5b610eed8686868686866113d0565b505050505050565b600460009054906101000a900473ffffffffffffffffffffffffffffffffffffffff1681565b6000600160009054906101000a900473ffffffffffffffffffffffffffffffffffffffff1673ffffffffffffffffffffffffffffffffffffffff1682604051610f6390612c1c565b60006040518083038185875af1925050503d8060008114610fa0576040519150601f19603f3d011682016040523d82523d6000602084013e610fa5565b606091505b5050905080610fe9576040517f08c379a0000000000000000000000000000000000000000000000000000000008152600401610fe090612e42565b60405180910390fd5b5050565b600085905060008590506000600860009054906101000a900473ffffffffffffffffffffffffffffffffffffffff1690508273ffffffffffffffffffffffffffffffffffffffff1663095ea7b3600860009054906101000a900473ffffffffffffffffffffffffffffffffffffffff16886040518363ffffffff167c0100000000000000000000000000000000000000000000000000000000028152600401611097929190612cb9565b602060405180830381600087803b1580156110b157600080fd5b505af11580156110c5573d6000803e3d6000fd5b505050506040513d601f19601f820116820180604052506110e99190810190612564565b508073ffffffffffffffffffffffffffffffffffffffff1663e2a7515e8484898989600a546040518763ffffffff167c010000000000000000000000000000000000000000000000000000000002815260040161114b96959493929190612d9a565b600060405180830381600087803b15801561116557600080fd5b505af1158015611179573d6000803e3d6000fd5b505050508273ffffffffffffffffffffffffffffffffffffffff1663095ea7b3600860009054906101000a900473ffffffffffffffffffffffffffffffffffffffff1660006040518363ffffffff167c01000000000000000000000000000000000000000000000000000000000281526004016111f7929190612c90565b602060405180830381600087803b15801561121157600080fd5b505af1158015611225573d6000803e3d6000fd5b505050506040513d601f19601f820116820180604052506112499190810190612564565b505050505050505050565b60008573ffffffffffffffffffffffffffffffffffffffff166370a08231306040518263ffffffff167c01000000000000000000000000000000000000000000000000000000000281526004016112ab9190612c4c565b60206040518083038186803b1580156112c357600080fd5b505afa1580156112d7573d6000803e3d6000fd5b505050506040513d601f19601f820116820180604052506112fb91908101906125b6565b905061130887868661157c565b60008673ffffffffffffffffffffffffffffffffffffffff166370a08231306040518263ffffffff167c010000000000000000000000000000000000000000000000000000000002815260040161135f9190612c4c565b60206040518083038186803b15801561137757600080fd5b505afa15801561138b573d6000803e3d6000fd5b505050506040513d601f19601f820116820180604052506113af91908101906125b6565b9050600082820390506113c5888a838888610fed565b505050505050505050565b60008673ffffffffffffffffffffffffffffffffffffffff166370a08231306040518263ffffffff167c01000000000000000000000000000000000000000000000000000000000281526004016114279190612c4c565b60206040518083038186803b15801561143f57600080fd5b505afa158015611453573d6000803e3d6000fd5b505050506040513d601f19601f8201168201806040525061147791908101906125b6565b9050611487878787878787611254565b60008773ffffffffffffffffffffffffffffffffffffffff166370a08231306040518263ffffffff167c01000000000000000000000000000000000000000000000000000000000281526004016114de9190612c4c565b60206040518083038186803b1580156114f657600080fd5b505afa15801561150a573d6000803e3d6000fd5b505050506040513d601f19601f8201168201806040525061152e91908101906125b6565b9050818111611572576040517f08c379a000000000000000000000000000000000000000000000000000000000815260040161156990612e22565b60405180910390fd5b5050505050505050565b60008390508073ffffffffffffffffffffffffffffffffffffffff1663095ea7b3600c60009054906101000a900473ffffffffffffffffffffffffffffffffffffffff16856040518363ffffffff167c01000000000000000000000000000000000000000000000000000000000281526004016115fa929190612cb9565b602060405180830381600087803b15801561161457600080fd5b505af1158015611628573d6000803e3d6000fd5b505050506040513d601f19601f8201168201806040525061164c9190810190612564565b50600b60009054906101000a900473ffffffffffffffffffffffffffffffffffffffff1673ffffffffffffffffffffffffffffffffffffffff1634836040516116959190612c05565b60006040518083038185875af1925050503d80600081146116d2576040519150601f19603f3d011682016040523d82523d6000602084013e6116d7565b606091505b5050508073ffffffffffffffffffffffffffffffffffffffff1663095ea7b3600c60009054906101000a900473ffffffffffffffffffffffffffffffffffffffff1660006040518363ffffffff167c0100000000000000000000000000000000000000000000000000000000028152600401611754929190612c90565b602060405180830381600087803b15801561176e57600080fd5b505af1158015611782573d6000803e3d6000fd5b505050506040513d601f19601f820116820180604052506117a69190810190612564565b5050505050565b8273ffffffffffffffffffffffffffffffffffffffff1663095ea7b36000809054906101000a900473ffffffffffffffffffffffffffffffffffffffff16600185016040518363ffffffff167c0100000000000000000000000000000000000000000000000000000000028152600401611828929190612cb9565b602060405180830381600087803b15801561184257600080fd5b505af1158015611856573d6000803e3d6000fd5b505050506040513d601f19601f8201168201806040525061187a9190810190612564565b50606060016040519080825280602002602001820160405280156118b857816020015b6118a5611d45565b81526020019060019003908161189d5790505b509050606060036040519080825280602002602001820160405280156118f857816020015b6118e5611d75565b8152602001906001900390816118dd5790505b50905060405180604001604052803073ffffffffffffffffffffffffffffffffffffffff16815260200160008152508260008151811061193457fe5b6020026020010181905250611947611de1565b604051806080016040528060001515815260200160008081111561196757fe5b815260200160008081111561197857fe5b815260200186815250905061198b611e1f565b60018160000190600881111561199d57fe5b908160088111156119aa57fe5b8152505060008160200181815250508181604001819052506119cb87610af4565b816060018181525050308160a0019073ffffffffffffffffffffffffffffffffffffffff16908173ffffffffffffffffffffffffffffffffffffffff16815250508083600081518110611a1a57fe5b6020026020010181905250611a2d611e1f565b600881600001906008811115611a3f57fe5b90816008811115611a4c57fe5b815250506000816020018181525050308160a0019073ffffffffffffffffffffffffffffffffffffffff16908173ffffffffffffffffffffffffffffffffffffffff1681525050858160e001819052508084600181518110611aaa57fe5b6020026020010181905250611abd611e1f565b611ac5611de1565b6040518060800160405280600115158152602001600080811115611ae557fe5b8152602001600080811115611af657fe5b815260200160018b018152509050600082600001906008811115611b1657fe5b90816008811115611b2357fe5b815250506000826020018181525050808260400181905250611b448a610af4565b826060018181525050308260a0019073ffffffffffffffffffffffffffffffffffffffff16908173ffffffffffffffffffffffffffffffffffffffff16815250508186600281518110611b9357fe5b60200260200101819052506000809054906101000a900473ffffffffffffffffffffffffffffffffffffffff1673ffffffffffffffffffffffffffffffffffffffff1663a67a6a4588886040518363ffffffff167c0100000000000000000000000000000000000000000000000000000000028152600401611c16929190612d63565b600060405180830381600087803b158015611c3057600080fd5b505af1158015611c44573d6000803e3d6000fd5b5050505050505050505050505050565b600160009054906101000a900473ffffffffffffffffffffffffffffffffffffffff1673ffffffffffffffffffffffffffffffffffffffff1663095ea7b3600d60009054906101000a900473ffffffffffffffffffffffffffffffffffffffff16836040518363ffffffff167c0100000000000000000000000000000000000000000000000000000000028152600401611cef929190612cb9565b602060405180830381600087803b158015611d0957600080fd5b505af1158015611d1d573d6000803e3d6000fd5b505050506040513d601f19601f82011682018060405250611d419190810190612564565b5050565b6040518060400160405280600073ffffffffffffffffffffffffffffffffffffffff168152602001600081525090565b60405180610100016040528060006008811115611d8e57fe5b815260200160008152602001611da2611e8b565b81526020016000815260200160008152602001600073ffffffffffffffffffffffffffffffffffffffff16815260200160008152602001606081525090565b6040518060800160405280600015158152602001600080811115611e0157fe5b8152602001600080811115611e1257fe5b8152602001600081525090565b60405180610100016040528060006008811115611e3857fe5b815260200160008152602001611e4c611e8b565b81526020016000815260200160008152602001600073ffffffffffffffffffffffffffffffffffffffff16815260200160008152602001606081525090565b6040518060800160405280600015158152602001600080811115611eab57fe5b8152602001600080811115611ebc57fe5b8152602001600081525090565b600081359050611ed881613260565b92915050565b600081359050611eed81613277565b92915050565b60008083601f840112611f0557600080fd5b8235905067ffffffffffffffff811115611f1e57600080fd5b602083019150836020820283011115611f3657600080fd5b9250929050565b600082601f830112611f4e57600080fd5b8135611f61611f5c82612f0a565b612edd565b91508181835260208401935060208101905083856020840282011115611f8657600080fd5b60005b83811015611fb65781611f9c8882612165565b845260208401935060208301925050600181019050611f89565b5050505092915050565b600082601f830112611fd157600080fd5b8135611fe4611fdf82612f32565b612edd565b9150818183526020840193506020810190508385602084028201111561200957600080fd5b60005b83811015612039578161201f8882612165565b84526020840193506020830192505060018101905061200c565b5050505092915050565b6000815190506120528161328e565b92915050565b60008083601f84011261206a57600080fd5b8235905067ffffffffffffffff81111561208357600080fd5b60208301915083600182028301111561209b57600080fd5b9250929050565b600082601f8301126120b357600080fd5b81356120c66120c182612f5a565b612edd565b915080825260208301602083018583830111156120e257600080fd5b6120ed8382846131e6565b50505092915050565b600082601f83011261210757600080fd5b813561211a61211582612f86565b612edd565b9150808252602083016020830185838301111561213657600080fd5b6121418382846131e6565b50505092915050565b60006040828403121561215c57600080fd5b81905092915050565b600081359050612174816132a5565b92915050565b600081519050612189816132a5565b92915050565b6000602082840312156121a157600080fd5b60006121af84828501611ec9565b91505092915050565b600080600080600080600060e0888a0312156121d357600080fd5b60006121e18a828b01611ede565b97505060206121f28a828b01612165565b96505060406122038a828b01612165565b95505060606122148a828b01611ede565b945050608088013567ffffffffffffffff81111561223157600080fd5b61223d8a828b016120a2565b93505060a061224e8a828b01612165565b92505060c088013567ffffffffffffffff81111561226b57600080fd5b6122778a828b01611f3d565b91505092959891949750929550565b60008060008060008060c0878903121561229f57600080fd5b60006122ad89828a01611ec9565b96505060206122be89828a01611ec9565b95505060406122cf89828a01612165565b945050606087013567ffffffffffffffff8111156122ec57600080fd5b6122f889828a016120f6565b935050608061230989828a01612165565b92505060a087013567ffffffffffffffff81111561232657600080fd5b61233289828a01611fc0565b9150509295509295509295565b600080600080600060a0868803121561235757600080fd5b600061236588828901611ec9565b955050602061237688828901611ec9565b945050604061238788828901612165565b935050606061239888828901612165565b925050608086013567ffffffffffffffff8111156123b557600080fd5b6123c188828901611fc0565b9150509295509295909350565b600080600080608085870312156123e457600080fd5b60006123f287828801611ec9565b94505060206124038782880161214a565b935050606085013567ffffffffffffffff81111561242057600080fd5b61242c87828801612058565b925092505092959194509250565b60008060008060008060008060c0898b03121561245657600080fd5b60006124648b828c01611ec9565b98505060206124758b828c01612165565b97505060406124868b828c01611ec9565b965050606089013567ffffffffffffffff8111156124a357600080fd5b6124af8b828c01612058565b955095505060806124c28b828c01612165565b93505060a089013567ffffffffffffffff8111156124df57600080fd5b6124eb8b828c01611ef3565b92509250509295985092959890939650565b60008060006060848603121561251257600080fd5b600061252086828701611ec9565b935050602061253186828701612165565b925050604084013567ffffffffffffffff81111561254e57600080fd5b61255a868287016120f6565b9150509250925092565b60006020828403121561257657600080fd5b600061258484828501612043565b91505092915050565b60006020828403121561259f57600080fd5b60006125ad84828501612165565b91505092915050565b6000602082840312156125c857600080fd5b60006125d68482850161217a565b91505092915050565b60006125eb8383612ab0565b905092915050565b60006125ff8383612bb8565b60408301905092915050565b60006126178383612be7565b60208301905092915050565b61262c81613144565b82525050565b61263b816130b1565b82525050565b61264a816130b1565b82525050565b600061265b82612fe2565b6126658185613040565b93508360208202850161267785612fb2565b8060005b858110156126b3578484038952815161269485826125df565b945061269f83613019565b925060208a0199505060018101905061267b565b50829750879550505050505092915050565b60006126d082612fed565b6126da8185613051565b93506126e583612fc2565b8060005b838110156127165781516126fd88826125f3565b975061270883613026565b9250506001810190506126e9565b5085935050505092915050565b600061272f8385613062565b93507f07ffffffffffffffffffffffffffffffffffffffffffffffffffffffffffffff83111561275e57600080fd5b60208302925061276f8385846131e6565b82840190509392505050565b600061278682612ff8565b6127908185613062565b935061279b83612fd2565b8060005b838110156127cc5781516127b3888261260b565b97506127be83613033565b92505060018101905061279f565b5085935050505092915050565b6127e2816130d5565b82525050565b60006127f48385613084565b93506128018385846131e6565b61280a83613228565b840190509392505050565b60006128208261300e565b61282a8185613095565b935061283a8185602086016131f5565b80840191505092915050565b600061285182613003565b61285b8185613073565b935061286b8185602086016131f5565b61287481613228565b840191505092915050565b61288881613156565b82525050565b6128978161317a565b82525050565b6128a68161318c565b82525050565b6128b58161319e565b82525050565b6128c4816131b0565b82525050565b60006128d76018836130a0565b91507f63616c6c6572206973206e6f7420746865206f776e65722100000000000000006000830152602082019050919050565b60006129176026836130a0565b91507f456e642062616c616e6365206d7573742065786365656420737461727420626160008301527f6c616e63652e00000000000000000000000000000000000000000000000000006020830152604082019050919050565b600061297d6012836130a0565b91507f6661696c656420746f20676574207765746800000000000000000000000000006000830152602082019050919050565b60006129bd602c836130a0565b91507f466c6173684c6f616e3a20636f756c642062652063616c6c656420627920447960008301527f447820706f6f6c206f6e6c7900000000000000000000000000000000000000006020830152604082019050919050565b6000612a23601d836130a0565b91507f636f6e747261637420646964206e6f742067657420746865206c6f616e0000006000830152602082019050919050565b6000612a63600083613095565b9150600082019050919050565b6000612a7d601c836130a0565b91507f466c6173684c6f616e3a20556e737570706f7274656420746f6b656e000000006000830152602082019050919050565b600061016083016000830151612ac9600086018261288e565b506020830151612adc6020860182612be7565b506040830151612aef6040860182612b63565b506060830151612b0260c0860182612be7565b506080830151612b1560e0860182612be7565b5060a0830151612b29610100860182612632565b5060c0830151612b3d610120860182612be7565b5060e0830151848203610140860152612b568282612846565b9150508091505092915050565b608082016000820151612b7960008501826127d9565b506020820151612b8c602085018261289d565b506040820151612b9f60408501826128ac565b506060820151612bb26060850182612be7565b50505050565b604082016000820151612bce6000850182612632565b506020820151612be16020850182612be7565b50505050565b612bf08161313a565b82525050565b612bff8161313a565b82525050565b6000612c118284612815565b915081905092915050565b6000612c2782612a56565b9150819050919050565b6000602082019050612c466000830184612641565b92915050565b6000602082019050612c616000830184612623565b92915050565b6000604082019050612c7c6000830185612623565b612c896020830184612bf6565b9392505050565b6000604082019050612ca56000830185612641565b612cb260208301846128bb565b9392505050565b6000604082019050612cce6000830185612641565b612cdb6020830184612bf6565b9392505050565b600060e082019050612cf7600083018c612641565b612d04602083018b612bf6565b612d11604083018a612bf6565b612d1e6060830189612641565b8181036080830152612d318187896127e8565b9050612d4060a0830186612bf6565b81810360c0830152612d53818486612723565b90509a9950505050505050505050565b60006040820190508181036000830152612d7d81856126c5565b90508181036020830152612d918184612650565b90509392505050565b600060c082019050612daf600083018961287f565b612dbc602083018861287f565b612dc96040830187612bf6565b612dd66060830186612bf6565b8181036080830152612de8818561277b565b9050612df760a0830184612bf6565b979650505050505050565b60006020820190508181036000830152612e1b816128ca565b9050919050565b60006020820190508181036000830152612e3b8161290a565b9050919050565b60006020820190508181036000830152612e5b81612970565b9050919050565b60006020820190508181036000830152612e7b816129b0565b9050919050565b60006020820190508181036000830152612e9b81612a16565b9050919050565b60006020820190508181036000830152612ebb81612a70565b9050919050565b6000602082019050612ed76000830184612bf6565b92915050565b6000604051905081810181811067ffffffffffffffff82111715612f0057600080fd5b8060405250919050565b600067ffffffffffffffff821115612f2157600080fd5b602082029050602081019050919050565b600067ffffffffffffffff821115612f4957600080fd5b602082029050602081019050919050565b600067ffffffffffffffff821115612f7157600080fd5b601f19601f8301169050602081019050919050565b600067ffffffffffffffff821115612f9d57600080fd5b601f19601f8301169050602081019050919050565b6000819050602082019050919050565b6000819050602082019050919050565b6000819050602082019050919050565b600081519050919050565b600081519050919050565b600081519050919050565b600081519050919050565b600081519050919050565b6000602082019050919050565b6000602082019050919050565b6000602082019050919050565b600082825260208201905092915050565b600082825260208201905092915050565b600082825260208201905092915050565b600082825260208201905092915050565b600082825260208201905092915050565b600081905092915050565b600082825260208201905092915050565b60006130bc8261311a565b9050919050565b60006130ce8261311a565b9050919050565b60008115159050919050565b60008190506130ef82613239565b919050565b600081905061310282613246565b919050565b600081905061311582613253565b919050565b600073ffffffffffffffffffffffffffffffffffffffff82169050919050565b6000819050919050565b600061314f826131c2565b9050919050565b600061316182613168565b9050919050565b60006131738261311a565b9050919050565b6000613185826130e1565b9050919050565b6000613197826130f4565b9050919050565b60006131a982613107565b9050919050565b60006131bb8261313a565b9050919050565b60006131cd826131d4565b9050919050565b60006131df8261311a565b9050919050565b82818337600083830152505050565b60005b838110156132135780820151818401526020810190506131f8565b83811115613222576000848401525b50505050565b6000601f19601f8301169050919050565b6009811061324357fe5b50565b6001811061325057fe5b50565b6001811061325d57fe5b50565b613269816130b1565b811461327457600080fd5b50565b613280816130c3565b811461328b57600080fd5b50565b613297816130d5565b81146132a257600080fd5b50565b6132ae8161313a565b81146132b957600080fd5b5056fea365627a7a7231582067d0e9ca1b004dc56dd31a9144cfa507963eca8fa3b4ea03a1eaf1086b8b3eeb6c6578706572696d656e74616cf564736f6c63430005110040",
  "source": "pragma solidity ^0.5.17;\npragma experimental ABIEncoderV2;\n\ninterface Structs {\n    struct Val {\n        uint256 value;\n    }\n\n    enum ActionType {\n      Deposit,   // supply tokens\n      Withdraw,  // borrow tokens\n      Transfer,  // transfer balance between accounts\n      Buy,       // buy an amount of some token (externally)\n      Sell,      // sell an amount of some token (externally)\n      Trade,     // trade tokens against another account\n      Liquidate, // liquidate an undercollateralized or expiring account\n      Vaporize,  // use excess tokens to zero-out a completely negative account\n      Call       // send arbitrary data to an address\n    }\n\n    enum AssetDenomination {\n        Wei // the amount is denominated in wei\n    }\n\n    enum AssetReference {\n        Delta // the amount is given as a delta from the current value\n    }\n\n    struct AssetAmount {\n        bool sign; // true if positive\n        AssetDenomination denomination;\n        AssetReference ref;\n        uint256 value;\n    }\n\n    struct ActionArgs {\n        ActionType actionType;\n        uint256 accountId;\n        AssetAmount amount;\n        uint256 primaryMarketId;\n        uint256 secondaryMarketId;\n        address otherAddress;\n        uint256 otherAccountId;\n        bytes data;\n    }\n\n    struct Info {\n        address owner;  // The address that owns the account\n        uint256 number; // A nonce that allows a single address to control many accounts\n    }\n\n    struct Wei {\n        bool sign; // true if positive\n        uint256 value;\n    }\n}\n\ncontract DyDxPool is Structs {\n    function getAccountWei(Info memory account, uint256 marketId) public view returns (Wei memory);\n    function operate(Info[] memory, ActionArgs[] memory) public;\n}\n\n\npragma solidity ^0.5.17;\n\n/**\n * @dev Interface of the ERC20 standard as defined in the EIP. Does not include\n * the optional functions; to access them see `ERC20Detailed`.\n */\ninterface IERC20 {\n    function totalSupply() external view returns (uint256);\n    function balanceOf(address account) external view returns (uint256);\n    function transfer(address recipient, uint256 amount) external returns (bool);\n    function allowance(address owner, address spender) external view returns (uint256);\n    function approve(address spender, uint256 amount) external returns (bool);\n    function transferFrom(address sender, address recipient, uint256 amount) external returns (bool);\n    event Transfer(address indexed from, address indexed to, uint256 value);\n    event Approval(address indexed owner, address indexed spender, uint256 value);\n}\n\npragma solidity ^0.5.17;\n\ncontract DyDxFlashLoan is Structs {\n    DyDxPool pool = DyDxPool(0x1E0447b19BB6EcFdAe1e4AE1694b0C3659614e4e);\n\n    address public WETH = 0xC02aaA39b223FE8D0A0e5C4F27eAD9083C756Cc2;\n    address public SAI = 0x89d24A6b4CcB1B6fAA2625fE562bDD9a23260359;\n    address public USDC = 0xA0b86991c6218b36c1d19D4a2e9Eb0cE3606eB48;\n    address public DAI = 0x6B175474E89094C44Da98b954EedeAC495271d0F;\n    mapping(address => uint256) public currencies;\n\n    constructor() public {\n        currencies[WETH] = 1;\n        currencies[SAI] = 2;\n        currencies[USDC] = 3;\n        currencies[DAI] = 4;\n    }\n\n    modifier onlyPool() {\n        require(\n            msg.sender == address(pool),\n            \"FlashLoan: could be called by DyDx pool only\"\n        );\n        _;\n    }\n\n    function tokenToMarketId(address token) public view returns (uint256) {\n        uint256 marketId = currencies[token];\n        require(marketId != 0, \"FlashLoan: Unsupported token\");\n        return marketId - 1;\n    }\n\n    // the DyDx will call `callFunction(address sender, Info memory accountInfo, bytes memory data) public` after during `operate` call\n    function flashloan(address token, uint256 amount, bytes memory data)\n        internal\n    {\n        IERC20(token).approve(address(pool), amount + 1);\n        Info[] memory infos = new Info[](1);\n        ActionArgs[] memory args = new ActionArgs[](3);\n\n        infos[0] = Info(address(this), 0);\n\n        AssetAmount memory wamt = AssetAmount(\n            false,\n            AssetDenomination.Wei,\n            AssetReference.Delta,\n            amount\n        );\n        ActionArgs memory withdraw;\n        withdraw.actionType = ActionType.Withdraw;\n        withdraw.accountId = 0;\n        withdraw.amount = wamt;\n        withdraw.primaryMarketId = tokenToMarketId(token);\n        withdraw.otherAddress = address(this);\n\n        args[0] = withdraw;\n\n        ActionArgs memory call;\n        call.actionType = ActionType.Call;\n        call.accountId = 0;\n        call.otherAddress = address(this);\n        call.data = data;\n\n        args[1] = call;\n\n        ActionArgs memory deposit;\n        AssetAmount memory damt = AssetAmount(\n            true,\n            AssetDenomination.Wei,\n            AssetReference.Delta,\n            amount + 1\n        );\n        deposit.actionType = ActionType.Deposit;\n        deposit.accountId = 0;\n        deposit.amount = damt;\n        deposit.primaryMarketId = tokenToMarketId(token);\n        deposit.otherAddress = address(this);\n\n        args[2] = deposit;\n\n        pool.operate(infos, args);\n    }\n}\n\n\npragma solidity ^0.5.17;\n\ncontract IOneSplit {\n    function getExpectedReturn(\n        IERC20 fromToken,\n        IERC20 toToken,\n        uint256 amount,\n        uint256 parts,\n        uint256 disableFlags\n    )\n        public\n        view\n        returns(\n            uint256 returnAmount,\n            uint256[] memory distribution\n        );\n\n    function swap(\n        IERC20 fromToken,\n        IERC20 toToken,\n        uint256 amount,\n        uint256 minReturn,\n        uint256[] memory distribution,\n        uint256 disableFlags\n    ) public payable;\n}\n\ncontract TradingBot is DyDxFlashLoan {\n    uint256 public loan;\n\n    // Addresses\n    address payable OWNER;\n\n    // OneSplit Config\n    address ONE_SPLIT_ADDRESS = 0xC586BeF4a0992C495Cf22e1aeEE4E446CECDee0E;\n    uint256 PARTS = 10;\n    uint256 FLAGS = 0;\n\n    // ZRX Config\n    address ZRX_EXCHANGE_ADDRESS = 0x61935CbDd02287B511119DDb11Aeb42F1593b7Ef;\n    address ZRX_ERC20_PROXY_ADDRESS = 0x95E6F48254609A6ee006F7D493c8e5fB97094ceF;\n    address ZRX_STAKING_PROXY = 0xa26e80e7Dea86279c6d778D702Cc413E6CFfA777; // Fee collector\n\n    // Modifiers\n    modifier onlyOwner() {\n        require(msg.sender == OWNER, \"caller is not the owner!\");\n        _;\n    }\n\n    // Allow the contract to receive Ether\n    function () external payable  {}\n\n    constructor() public payable {\n        _getWeth(msg.value);\n        _approveWeth(msg.value);\n        OWNER = msg.sender;\n    }\n\n    function getFlashloan(address flashToken, uint256 flashAmount, address arbToken, bytes calldata zrxData, uint256 oneSplitMinReturn, uint256[] calldata oneSplitDistribution) external payable onlyOwner {\n        uint256 balanceBefore = IERC20(flashToken).balanceOf(address(this));\n        bytes memory data = abi.encode(flashToken, flashAmount, balanceBefore, arbToken, zrxData, oneSplitMinReturn, oneSplitDistribution);\n        flashloan(flashToken, flashAmount, data); // execution goes to `callFunction`\n\n        // and this point we have succefully paid the dept\n    }\n\n    function callFunction(\n        address, /* sender */\n        Info calldata, /* accountInfo */\n        bytes calldata data\n    ) external onlyPool {\n        (address flashToken, uint256 flashAmount, uint256 balanceBefore, address arbToken, bytes memory zrxData, uint256 oneSplitMinReturn, uint256[] memory oneSplitDistribution) = abi\n            .decode(data, (address, uint256, uint256, address, bytes, uint256, uint256[]));\n        uint256 balanceAfter = IERC20(flashToken).balanceOf(address(this));\n        require(\n            balanceAfter - balanceBefore == flashAmount,\n            \"contract did not get the loan\"\n        );\n        loan = balanceAfter;\n\n        // do whatever you want with the money\n        // the dept will be automatically withdrawn from this contract at the end of execution\n        _arb(flashToken, arbToken, flashAmount, zrxData, oneSplitMinReturn, oneSplitDistribution);\n    }\n\n    function arb(address _fromToken, address _toToken, uint256 _fromAmount, bytes memory _0xData, uint256 _1SplitMinReturn, uint256[] memory _1SplitDistribution) onlyOwner payable public {\n        _arb(_fromToken, _toToken, _fromAmount, _0xData, _1SplitMinReturn, _1SplitDistribution);\n    }\n\n    function _arb(address _fromToken, address _toToken, uint256 _fromAmount, bytes memory _0xData, uint256 _1SplitMinReturn, uint256[] memory _1SplitDistribution) internal {\n        // Track original balance\n        uint256 _startBalance = IERC20(_fromToken).balanceOf(address(this));\n\n        // Perform the arb trade\n        _trade(_fromToken, _toToken, _fromAmount, _0xData, _1SplitMinReturn, _1SplitDistribution);\n\n        // Track result balance\n        uint256 _endBalance = IERC20(_fromToken).balanceOf(address(this));\n\n        // Require that arbitrage is profitable\n        require(_endBalance > _startBalance, \"End balance must exceed start balance.\");\n    }\n\n    function trade(address _fromToken, address _toToken, uint256 _fromAmount, bytes memory _0xData, uint256 _1SplitMinReturn, uint256[] memory _1SplitDistribution) onlyOwner payable public {\n        _trade(_fromToken, _toToken, _fromAmount, _0xData, _1SplitMinReturn, _1SplitDistribution);\n    }\n\n    function _trade(address _fromToken, address _toToken, uint256 _fromAmount, bytes memory _0xData, uint256 _1SplitMinReturn, uint256[] memory _1SplitDistribution) internal {\n        // Track the balance of the token RECEIVED from the trade\n        uint256 _beforeBalance = IERC20(_toToken).balanceOf(address(this));\n\n        // Swap on 0x: give _fromToken, receive _toToken\n        _zrxSwap(_fromToken, _fromAmount, _0xData);\n\n        // Calculate the how much of the token we received\n        uint256 _afterBalance = IERC20(_toToken).balanceOf(address(this));\n\n        // Read _toToken balance after swap\n        uint256 _toAmount = _afterBalance - _beforeBalance;\n\n        // Swap on 1Split: give _toToken, receive _fromToken\n        _oneSplitSwap(_toToken, _fromToken, _toAmount, _1SplitMinReturn, _1SplitDistribution);\n    }\n\n    function zrxSwap(address _from, uint256 _amount, bytes memory _calldataHexString) onlyOwner public payable {\n        _zrxSwap(_from, _amount, _calldataHexString);\n    }\n\n    function _zrxSwap(address _from, uint256 _amount, bytes memory _calldataHexString) internal {\n        // Approve tokens\n        IERC20 _fromIERC20 = IERC20(_from);\n        _fromIERC20.approve(ZRX_ERC20_PROXY_ADDRESS, _amount);\n\n        // Swap tokens\n        address(ZRX_EXCHANGE_ADDRESS).call.value(msg.value)(_calldataHexString);\n\n        // Reset approval\n        _fromIERC20.approve(ZRX_ERC20_PROXY_ADDRESS, 0);\n    }\n\n    function oneSplitSwap(address _from, address _to, uint256 _amount, uint256 _minReturn, uint256[] memory _distribution) onlyOwner public payable {\n        _oneSplitSwap(_from, _to, _amount, _minReturn, _distribution);\n    }\n\n    function _oneSplitSwap(address _from, address _to, uint256 _amount, uint256 _minReturn, uint256[] memory _distribution) internal {\n        // Setup contracts\n        IERC20 _fromIERC20 = IERC20(_from);\n        IERC20 _toIERC20 = IERC20(_to);\n        IOneSplit _oneSplitContract = IOneSplit(ONE_SPLIT_ADDRESS);\n\n        // Approve tokens\n        _fromIERC20.approve(ONE_SPLIT_ADDRESS, _amount);\n\n        // Swap tokens: give _from, get _to\n        _oneSplitContract.swap(_fromIERC20, _toIERC20, _amount, _minReturn, _distribution, FLAGS);\n\n        // Reset approval\n        _fromIERC20.approve(ONE_SPLIT_ADDRESS, 0);\n    }\n\n    function getWeth() public payable onlyOwner {\n        _getWeth(msg.value);\n    }\n\n    function _getWeth(uint256 _amount) internal {\n        (bool success, ) = WETH.call.value(_amount)(\"\");\n        require(success, \"failed to get weth\");\n    }\n\n    function approveWeth(uint256 _amount) public onlyOwner {\n        _approveWeth(_amount);\n    }\n\n    function _approveWeth(uint256 _amount) internal {\n        IERC20(WETH).approve(ZRX_STAKING_PROXY, _amount);\n    }\n\n    // KEEP THIS FUNCTION IN CASE THE CONTRACT RECEIVES TOKENS!\n    function withdrawToken(address _tokenAddress) public onlyOwner {\n        uint256 balance = IERC20(_tokenAddress).balanceOf(address(this));\n        IERC20(_tokenAddress).transfer(OWNER, balance);\n    }\n\n    // KEEP THIS FUNCTION IN CASE THE CONTRACT KEEPS LEFTOVER ETHER!\n    function withdrawEther() public onlyOwner {\n        address self = address(this); // workaround for a possible solidity bug\n        uint256 balance = self.balance;\n        address(OWNER).transfer(balance);\n    }\n}\n",
  "sourcePath": "/home/dev/Workspace/devilla-arbitrage/contracts/Arbitrage.sol",
  "compiler": {
    "name": "solc",
    "version": "0.5.17+commit.d19bba13.Linux.g++"
  },
  "schemaVersion": "3.2.4",
  "updatedAt": "2021-01-02T14:45:05.560Z",
  "devdoc": {
    "methods": {}
  },
  "userdoc": {
    "methods": {}
  }
}